:060000000A128A110C280F
:10000800FE00030EF0000A08F1000A128A15082FF4
:100018000A128A110F280A128A11FE240A128A115A
:10002800C6000A128A11FF240A128A11C7000A128E
:100038008A11FF270A128A11FB00B901BA01BB0114
:10004800BC01BD01BE01BF01C001C101C201C301A4
:10005800C401C501F901FA0183010A128A11A6290E
:1000680083120313B20010302E062F04031D3D28FF
:100078003E285E28C201BB01BC01C101C001C30109
:10008800FF30B2008030F60045300A128A15E026AB
:100098000A128A11C030F600B0300A128A15E0261A
:1000A8000A128A11D030F60034300A128A15E02676
:1000B8000A128A112A30831203133206031965289B
:1000C800662888282330320603196B286C2888286C
:1000D800320A03197028712888280130FF007F0828
:1000E800C2070430420203187A287B281B290A30E9
:1000F800F20040080A128A1569260A128A11831228
:1001080003133207C0001B292A303206031D8D282D
:100118008E289128C001C2011B2923303206031DF5
:10012800962897281B290A128A1558260A128A1116
:100138008030F60075300A128A15E0260A128A11F4
:100148009030F60090300A128A15E0260A128A11B9
:100158008312031312151230C500F9289C30A80029
:100168000A30A4000030A5000A30F2000030F30085
:100178004508B000B1013008F4003108F5000A1252
:100188008A1152240A128A11730883120313A700D2
:100198007208A6000A128A153D270A128A118312CC
:1001A80003132408303E0A128A11EC270A128A1116
:1001B8009D3083120313A8000A30A4000030A50064
:1001C8004508B000B1013008A6003108A7000A129E
:1001D8008A153D270A128A11831203132408303E18
:1001E8000A128A11EC270A128A118312031345088E
:1001F800031DFF280029B2284508031D04290529E5
:100208001B29C301C30A1211C301C30A0A128A15A2
:1002180058260A128A11103083120313A9000030DD
:10022800AA0032080A128A11FD220A128A11013024
:1002380083120313BB070318BC0A0030BC07103035
:100248003B063C04031D29292A299629BB01BC0128
:100258004108031930293229013033290030C100FF
:10026800C830A8006430F2000030F3004008B00045
:10027800B1013008F4003108F5000A128A1152243D
:100288000A128A117208303E0A128A11EC270A12E1
:100298008A11C93083120313A8000A30A400003061
:1002A800A5000A30F2000030F3004008B000B101A8
:1002B8003008F4003108F5000A128A1152240A1293
:1002C8008A11730883120313A7007208A6000A1282
:1002D8008A153D270A128A11831203132408303E17
:1002E8000A128A11EC270A128A11CA3083120313E0
:1002F800A8000A30A4000030A5004008B000B101F1
:100308003008A6003108A7000A128A153D270A12EC
:100318008A11831203132408303E0A128A11EC272B
:100328000A128A1183120313410803199C299D2973
:10033800A529C830F6000E300A128A15E0260A12DE
:100348008A1108000A128A157E260A128A110130BB
:100358000A128A15BD260A128A1183120313B800DD
:10036800023046064704031DBA29BB291F2A380351
:10037800031DBF29C029E9290330C6000030C70082
:100388001030B6000030B7000A128A1558260A1233
:100398008A11C030F60055300A128A15E0260A1272
:1003A8008A114D3083120313B5001930B4004F3051
:1003B800B300B30BDD29B40BDD29B50BDD290A1217
:1003C8008A1558260A128A11D22A02303806031DC5
:1003D800EE29EF29F8290430C6000030C700103094
:1003E800B6000030B700E32903303806031DFD29A5
:1003F800FE29072A0530C6000030C7001030B600B5
:100408000030B700E32904303806031D0C2A0D2AF2
:100418001E2A1E30C500C401071512150A128A15B6
:1004280058260A128A11073083120313C6000030B7
:10043800C700D22AD22A073046064704031D252AB8
:10044800262A532A04303806031D2B2A2C2A3D2A33
:1004580045081E3EC5003C304502031C342A352A97
:10046800D22A0130FF007F08C4074508C43EC500F2
:10047800D22A05303806031D422A432A482A093061
:10048800C6000030C700D22A06303806031D4D2AA0
:100498004E2A1E2A0A30C6000030C700E329093058
:1004A80046064704031D592A5A2A1E2A04303806CC
:1004B800031D5F2A602AD22A07151215172A0A1265
:1004C8008A1181270A128A11023083120313C60087
:1004D8000030C7000A128A1558260A128A11F32A10
:1004E8000A128A159C260A128A11F32A3708AA00CA
:1004F8003608A90038080A128A11FD220A128A1140
:10050800F32A3708AA003608A90038080A128A11FF
:10051800FD220A128A11F32A4308031D942A952AF8
:10052800B22A3708AF003608AE0038080A128A1116
:1005380034200A128A11831203134303031DA52AC8
:10054800A62AF32A0A128A1558260A128A11103086
:1005580083120313B6000030B700AB294303031D11
:10056800B62AB72AF32A3708AA003608A900380895
:100578000A128A11FD220A128A11F32A0A128A1112
:10058800EE250A128A11F32A07111211F32A07110C
:1005980012110230C6000030C700F32A8312031379
:1005A8004708003A0319D92AF32A4608013A0319D9
:1005B800632A033A0319742A013A03197A2A073A73
:1005C8000319852A013A0319902A023A0319C22A03
:1005D8000E3A0319C82A033A0319CB2AF32A0F3013
:1005E80083120313B6000030B700AB290A128A1130
:1005F8000C2883120313AD00103029062A04031DAA
:10060800062B072B282BBF01C501C401BE01B90168
:10061800BA01BD01FF30AD008030F60023300A1268
:100628008A15E0260A128A11C030F600E2300A1252
:100638008A15E0260A128A11D030F60034300A12E0
:100648008A15E0260A128A112A30831203132D060E
:1006580003192F2B302B6E2B23302D060319352B26
:10066800362B6E2B2D0A03193A2B3B2B6E2B0130A0
:10067800FF007F08BF0703303F020318442B452BB8
:10068800532B0A30F20045080A128A1569260A1205
:100698008A11831203132D07C500BE01982B03305E
:1006A8003F02031C582B592B982B05303F02031887
:1006B8005E2B5F2B982B0A30F20044080A128A1529
:1006C80069260A128A11831203132D07C400BE017A
:1006D800BE0A982B2A302D06031D732B742B852BED
:1006E8003E08031D782B792B7C2BC501BF01982B65
:1006F8003E03031D802B812B982BC4010230BF00C1
:10070800982B23302D06031D8A2B8B2B982B0A122E
:100718008A1558260A128A11073083120313C60055
:100728000030C700071512150130B9070318BA0AB7
:100738000030BA07103039063A04031DA42BA52B44
:10074800272CB901BA013D080319AB2BAD2B013099
:10075800AE2B0030BD00C630A8000A30F2000030D1
:10076800F3004408AB00AC012B08F4002C08F5009A
:100778000A128A1152240A128A117208303E0A1289
:100788008A11EC270A128A11C73083120313A800B2
:100798000A30A4000030A5004408AB00AC012B08C7
:1007A800A6002C08A7000A128A153D270A128A11EA
:1007B800831203132408303E0A128A11EC270A1206
:1007C8008A11C83083120313A8003A300A128A111A
:1007D800EC270A128A11C93083120313A8000A30C1
:1007E800F2000030F3004508AB00AC012B08F40020
:1007F8002C08F5000A128A1152240A128A1172086A
:10080800303E0A128A11EC270A128A11CA30831262
:100818000313A8000A30A4000030A5004508AB0067
:10082800AC012B08A6002C08A7000A128A153D2740
:100838000A128A11831203132408303E0A128A11FD
:10084800EC270A128A11831203133D0803192D2C71
:100858002E2C512C412CC930F6000F300A128A1563
:10086800E0260A128A11512CC630F6000F300A12FF
:100878008A15E0260A128A11512C3E08AB00AC01F9
:100888002C08003A0319492C512C2B08003A03195B
:100898002F2C013A0319382C512C0800831203130A
:1008A800A101F31F582C592C602CF209F309F20A04
:1008B8000319F30AA101A10AF51F632C642C6D2CFE
:1008C800F409F509F40A0319F50A0130FF007F0855
:1008D800A106A201A301720873040319742C752CD4
:1008E800AC2CA001A00A832C01300310F20DF30DEB
:1008F800FF3E031D792C0130FF007F08A007F31F7E
:10090800862C872C782C01300310A20DA30DFF3EF6
:10091800031D882C73087502031D942C7208740239
:10092800031C972C982C9F2C7208F4027308031C44
:10093800F503F502221401300310F30CF20CFF3E0C
:10094800031DA02C0130A002031DAB2CAC2C872C5E
:1009580021080319B02CB12CB62CA209A309A20AAC
:100968000319A30A2308F3002208F2000800F5007F
:100978007218BF2CC32C831203130915C62C8312BB
:10098800031309117508F03988008914A630F3009B
:10099800F30BCC2C000083120313891075080F3950
:1009A800F30003300310F30DFF3E031DD62C031094
:1009B800730D88008914A630F300F30BE12C0000B6
:1009C8008312031389101B30F4009E30F300F30BDD
:1009D800EB2CF40BEB2C0000080083120313121409
:1009E8009214FA308316031392008C1483120313A3
:1009F800121108000134003405308A000408840A02
:100A0800820700342034203450346F34773465340E
:100A1800723469346E34673420344F346E34203481
:100A280020342034003420344D3469346334723433
:100A38006F34773461347634653420346F347634E7
:100A480065346E34203400345334453454342034FF
:100A5800543449344D344534203428344D344D34DD
:100A68003A3453345334293400342A343A3443342E
:100A78004C344534413452342034203423343A340D
:100A880045344E34543445345234003420345334CD
:100A9800453454342034543445344D345034283497
:100AA8006F34433429342034203400342034503413
:100AB8006F3477346534723420343D34203439341B
:100AC8003034303457342034203400342034343433
:100AD8002E34533474346134723474342F345234B1
:100AE8006534733475346D346534003420345034CF
:100AF800723465342D34483465346134743469345F
:100B08006E3467342034003433342E3443346F3435
:100B18006E34763465346334743469346F346E34C7
:100B28000034543469346D346534203452346534B7
:100B38006D342E343D342034003420345434693438
:100B48006D34653420345534703421342134003404
:100B5800543449344D34453420343D342034203421
:100B680000342034543445344D34503420343D342A
:100B780020340034203435342E3450346134753404
:100B880073346534003432342E3447347234693463
:100B98006C346C34003431342E344D34693463345D
:100BA80072346F340034203436342E345334743471
:100BB8006F347034003434342E3453347434613424
:100BC800723474340034543449344D3445342D343B
:100BD800203400348030F600A7300A128A15E02647
:100BE8000A128A11893083120313A8000A30F2000E
:100BF8000030F3004408A900AA012908F4002A08D3
:100C0800F5000A128A1152240A128A117208303E1B
:100C18000A128A11EC270A128A118A3083120313E6
:100C2800A8000A30A4000030A5004408A900AA01C1
:100C38002908A6002A08A7000A128A153D270A12C1
:100C48008A11831203132408303E0A128A11EC27F2
:100C58000A128A118B3083120313A8003A300A1241
:100C68008A11EC270A128A118C3083120313A80008
:100C78000A30F2000030F3004508A900AA0129084B
:100C8800F4002A08F5000A128A1152240A128A115D
:100C98007208303E0A128A11EC270A128A118D3026
:100CA80083120313A8000A30A4000030A5004508E9
:100CB800A900AA012908A6002A08A7000A128A156D
:100CC8003D270A128A11831203132408303E0A12A0
:100CD8008A11EC270A128A11C030F60065300A1210
:100CE8008A15E0260A128A119030F600B9300A12E5
:100CF8008A15E0260A128A11D030F600D2300A127C
:100D08008A15E0260A128A11831203134508031D67
:100D18008E2E8F2EC02E4408031D932E942EC02E87
:100D28000A128A1558260A128A11C030F6009C3019
:100D38000A128A15E0260A128A11831203138714ED
:100D48004D3083120313AB001930AA004F30A900AD
:100D5800A90BAC2EAA0BAC2EAB0BAC2E0A128A1523
:100D680058260A128A1183120313871007111211C9
:100D78000230C6000030C700080083120313881130
:100D88000815881408146430F2000030F300FF30AE
:100D9800F2070318F30AFF30F3077308803AFF00DD
:100DA80080307F02031DDA2E013072020318DD2E17
:100DB800DE2ECB2E831203130618E32EE42EE62E26
:100DC8000130802F8618E92EEA2EEC2E0230802F73
:100DD8000619EF2EF02EF22E0330802F88150811F9
:100DE800881408146430F2000030F300FF30F20772
:100DF8000318F30AFF30F3077308803AFF008030C6
:100E08007F02031D092F0130720203180C2F0D2FCA
:100E1800FA2E831203130618122F132F152F0430DE
:100E2800802F8618182F192F1B2F0530802F061991
:100E38001E2F1F2F212F0630802F88150815881088
:100E480008146430F2000030F300FF30F207031892
:100E5800F30AFF30F3077308803AFF0080307F02FF
:100E6800031D382F0130720203183B2F3C2F292F06
:100E7800831203130618412F422F442F0730802F67
:100E88008618472F482F4A2F0830802F06194D2FD4
:100E98004E2F502F0930802F8815081588140810F8
:100EA8006430F2000030F300FF30F2070318F30A51
:100EB800FF30F3077308803AFF0080307F02031D7C
:100EC800672F0130720203186A2F6B2F582F831275
:100ED80003130618702F712F732F2A30802F86184E
:100EE800762F772F792F0030802F06197C2F7D2FB2
:100EF8007F2F2330802FFF30080083120313AC01AB
:100F08002C08803EA800FF300A128A11EC270A122A
:100F18008A11033083120313AB008A30AA005530BC
:100F2800A900A90B952FAA0B952FAB0B952F013074
:100F3800FF007F0883120313AC0710302C02031C38
:100F4800A62FA72F842FC030F60001300A128A1569
:100F5800E0260A128A119030F60012300A128A1519
:100F6800E0260A128A1183120313AC012C08D03E22
:100F7800A800FF300A128A11EC270A128A110330DE
:100F880083120313AB008A30AA005530A900A90BBD
:100F9800CB2FAA0BCB2FAB0BCB2F0130FF007F0839
:100FA80083120313AC0710302C02031CDC2FDD2F37
:100FB800BA2F4D3083120313AB001930AA004F30FB
:100FC800A900A90BE52FAA0BE52FAB0BE52F08000D
:100FD800F800F2018312031328080A128A11BB24AD
:100FE8000A128A11F201F20A78080A128A11BB243D
:080FF8000A128A1108000134FD
:101C7A00831603138801091189100A128A159827F5
:101C8A000A128A1508008316031306080738860005
:101C9A000808F03988008113831203138815081580
:101CAA00881408140800F20101300A128A11BB24B0
:101CBA000A128A150430F7003D30F600F60B632E3F
:101CCA00F70B632E682E0800F400F301741C6E2EC5
:101CDA006F2E732E7208FF007F08F3070310F20DB0
:101CEA000310F40C7408031D7B2E7C2E6B2E7308D4
:101CFA0008000A128A153D260A128A150A128A153E
:101D0A0048260A128A15831603130711831203132E
:101D1A0007118316031387108312031387100A12FD
:101D2A008A11F1240A128A150B178B1708008030C2
:101D3A00F600CA300A128A15E0260A128A15C0303D
:101D4A00F600C2300A128A15E0260A128A15903065
:101D5A00F60083300A128A15E0260A128A15D03054
:101D6A00F600DA300A128A15E0260A128A150800E5
:101D7A00F4000A128A11C1260A128A15F50074089B
:101D8A00031DC82EC92ECB2E7508DF2E750A03191E
:101D9A00CF2ED02ED72E7B080319D42ED52ED72E90
:101DAA00FB01C92E750A031DDB2EDC2EDE2EFB017C
:101DBA00FB0AFF300800F700F20176080A128A11BE
:101DCA00BB240A128A15FB2EF201F20A7708840054
:101DDA000A128A1100250A128A150A128A11BB24CC
:101DEA000A128A150130FF007F08F7077708840076
:101DFA000A128A1100250A128A15003A031D062FB3
:101E0A00072FE92E0800831203138C1C0D2F0E2FA7
:101E1A00362F0130F9070318FA0A0030FA07E230C0
:101E2A007906043003197A06031D1C2F1D2F352F3E
:101E3A00F901FA0145080319232F242F272F01300E
:101E4A00C502352F4508031D2B2F2C2F352F44088B
:101E5A000319302F312F352F0130C4023B30C50012
:101E6A008C1071088A00700E8300FE0E7E0E090027
:101E7A00F70183120313A71F432F442F4B2FA609E1
:101E8A00A709A60A0319A70AF701F70AA51F4E2FE1
:101E9A004F2F542FA409A509A40A0319A50A240837
:101EAA0025040319592F5A2F892FF601F60A682F8C
:101EBA0001300310A40DA50DFF3E031D5E2F013056
:101ECA00FF007F08F607A51F6B2F6C2F5D2F2508D3
:101EDA002702031D722F24082602031C752F762F52
:101EEA007C2F2408A6022508031CA703A702013099
:101EFA000310A50CA40CFF3E031D7D2F0130F60232
:101F0A00031D882F892F6C2F770803198D2F8E2F89
:101F1A00932FA609A709A60A0319A70A2708A50045
:101F2A002608A40008000330F8008A30F70055306C
:101F3A00F600F60B9E2FF70B9E2FF80B9E2FA52F60
:101F4A00F20133300A128A11BB240A128A151B3095
:101F5A00F7009E30F600F60BB02FF70BB02F0000FB
:101F6A00F20133300A128A11BB240A128A15A630EA
:101F7A00F600F60BBE2F0000F20133300A128A1166
:101F8A00BB240A128A15C92FCA2F0000F201023097
:101F9A000A128A11BB240A128A15A630F600F60B19
:101FAA00D42F0000F20128300A128A11BB240A1227
:101FBA008A15A630F600F60BE02F0000F201013078
:101FCA000A128A11BB240A128A150430F7003D301E
:101FDA00F600F60BEE2FF70BEE2FF32FF2010C3073
:101FEA000A128A11BB240A128A15A630F600F60BC9
:061FFA00FC2F00000800AE
:02400E007A3FF7
:00000001FF
